:020000040808EA
:1000000000000520C10E0808591008085B100808F8
:100010005D1008085F100808611008080000000063
:10002000000000000000000000000000631008084D
:10003000651008080000000067100808691008082B
:10004000110F0808110F0808110F0808110F0808F0
:10005000110F0808110F0808110F0808110F0808E0
:10006000110F0808110F0808110F0808110F0808D0
:10007000110F0808110F0808110F0808110F0808C0
:10008000110F0808110F0808110F0808110F0808B0
:10009000110F0808110F0808110F0808110F0808A0
:1000A000110F0808110F0808110F0808110F080890
:1000B000110F0808110F0808110F0808110F080880
:1000C000110F0808110F0808110F0808110F080870
:1000D000110F0808110F0808110F0808110F080860
:1000E000110F0808110F0808110F0808110F080850
:1000F000110F0808110F0808110F0808110F080840
:10010000110F0808110F0808110F0808110F08082F
:10011000110F0808110F0808110F0808110F08081F
:10012000110F0808110F0808110F0808110F08080F
:10013000110F0808110F0808110F0808110F0808FF
:10014000110F0808110F0808110F0808110F0808EF
:10015000110F0808110F0808110F0808110F0808DF
:10016000110F0808110F0808110F0808110F0808CF
:10017000110F0808110F0808110F080800000000EF
:10018000110F0808110F0808110F0808110F0808AF
:10019000110F0808110F0808110F0808110F08089F
:1001A000110F0808110F0808110F0808110F08088F
:1001B000110F0808110F0808110F0808110F08087F
:0801C000110F0808110F0808D7
:1001C80010B5054C237833B9044B13B10448AFF389
:1001D80000800123237010BD1C00002000000000D7
:1001E800B410080808B5034B1BB103490348AFF323
:1001F800008008BD0000000020000020B41008089E
:1002080053B94AB9002908BF00281CBF4FF0FF3175
:100218004FF0FF3000F072B9ADF1080C6DE904CE73
:1002280000F006F8DDF804E0DDE9022304B07047C9
:100238002DE9F047089E04468846002B4BD18A4298
:10024800154667D9B2FA82F24AB1C2F1200701FA1B
:1002580002F320FA07F7954047EA030894404FEA6B
:10026800154E230CB8FBFEF71FFA85FC0EFB17880A
:1002780043EA084307FB0CF1994209D9EB1807F147
:10028800FF3080F01B81994240F21881023F2B44D5
:100298005B1AA4B2B3FBFEF00EFB103344EA03442E
:1002A80000FB0CFCA44509D92C1900F1FF3380F0A0
:1002B8000781A44540F2048102382C4440EA0740F3
:1002C800A4EB0C0400271EB1D4400023C6E9004368
:1002D8003946BDE8F0878B4209D9002E00F0EB8043
:1002E8000027C6E9000138463946BDE8F087B3FA69
:1002F80083F7002F47D18B4202D3824200F2FA8063
:10030800841A61EB030301209846002EE0D0C6E969
:100318000048DDE702B9FFDEB2FA82F2002A40F0B7
:100328008F80491B4FEA154E1FFA85F80127B1FB4C
:10033800FEFC230C0EFB1C1143EA014308FB0CF1E5
:10034800994207D9EB180CF1FF3002D2994200F21A
:10035800CD808446591AA3B2B1FBFEF00EFB1014EF
:1003680043EA044408FB00F8A04507D92C1900F11A
:10037800FF3302D2A04500F2B6801846A4EB080469
:1003880040EA0C409FE7C7F1200CBB4022FA0CFE64
:100398004EEA030E01FA07F420FA0CF521FA0CF3E1
:1003A8004FEA1E482543B3FBF8F92C0C08FB193318
:1003B8001FFA8EFA44EA034309FB0AF49C4202FA44
:1003C80007F200FA07F10BD91EEB030309F1FF301E
:1003D80080F087809C4240F28480A9F1020973442E
:1003E8001B1BADB2B3FBF8F008FB103345EA03441E
:1003F80000FB0AFAA24508D91EEB040400F1FF33FA
:100408006BD2A24569D90238744440EA0940A0FB7E
:100418000289A4EB0A044C45C2464B4654D351D03A
:10042800002E69D0B1EB0A0564EB030404FA0CFC56
:10043800FD40FC404CEA0505C6E90054002747E7A3
:10044800C2F1200320FA03F7954001FA02F021FADD
:1004580003F34FEA154E3843010CB3FBFEF71FFABE
:1004680085F80EFB173341EA034107FB08F38B427B
:1004780004FA02F407D9691807F1FF3C2FD28B421E
:100488002DD9023F2944CB1A81B2B3FBFEF00EFBF3
:10049800103341EA034100FB08F38B4207D969187E
:1004A80000F1FF3C17D28B4215D902382944C91AEA
:1004B80040EA07473BE73746304609E70746E7E69D
:1004C8001846FBE64145ABD2B8EB020A69EB0E02CF
:1004D80001381346A4E76046E9E7184695E76746FA
:1004E800D1E781467CE702382C4447E7ACF1020C9F
:1004F8002B442FE7384608E73746E9E6704700BF40
:10050800144B1A6B42F00202F0B51A6389B01B6BE8
:10051800044603F00203C8B90193019B0E4B002760
:100528000E4D03A933F81460012355F824000396EF
:10053800CDE904370323069300F00AF93A46314619
:1005480055F8240000F0ECF909B0F0BD0293029BC5
:10055800E4E700BF00380240CC1008080000002083
:10056800044B012233F81010034B53F8200000F01D
:10057800D7B900BFCC10080800000020034B33F89F
:100588001010034B53F8200000F0CFB9CC10080826
:10059800000000200E490020D1F8883043F4700391
:1005A800C1F888300B4B1A6842F001021A60986053
:1005B8001A6822F0847222F480321A60064A5A605D
:1005C8001A6822F480221A60D860044B8B60704746
:1005D80000ED00E000380240103000240000080858
:1005E8007047000070B50E4E05464FF47A730D4AF9
:1005F8003078B3FBF0F31068B0FBF3F000F092F83A
:10060800044650B90F2D08D8024629464FF0FF304E
:1006180000F056F82046756070BD0120FCE700BF69
:10062800140000201000002008B5094B03201A68A8
:1006380042F400721A601A6842F480721A6000F07C
:100648002DF80F20FFF7CEFFFFF7CAFF002008BDE7
:10065800003C0240034A044B11681B780B441360AA
:10066800704700BF4C00002014000020014B1868A0
:10067800704700BF4C00002038B50446FFF7F6FF6E
:100688000546631C1EBF044B1B78E418FFF7EEFFFA
:10069800401BA042FAD338BD14000020074A0002CC
:1006A800D36800F4E06023F4E0631B041B0C43F000
:1006B800BF6343F400330343D360704700ED00E0A9
:1006C800164B70B5DC684FF0FF36C4F30224C4F152
:1006D8000705231D042D28BF0425062B06FA05F35C
:1006E8008CBF033C0024002821EA030303FA04F327
:1006F80006FA04F422EA040443EA04034FEA031363
:10070800DBB206DB00F1604000F5614080F80033A1
:1007180070BD00F00F00024A1354F9E700ED00E045
:1007280014ED00E00138B0F1807F0AD2064BF021C9
:10073800064A5860002082F82310072298601A6041
:1007480070470120704700BF10E000E000ED00E0B6
:100758002DE9F04F0B6885B0DFF8BC8101930023C9
:100768006B4ADFF8B8910124019D9C402540AC42BA
:1007780040F0B4804C684FEA430E032624F0100C76
:1007880006FA0EF60CF1FF37F643012F11D88768E9
:1007980007EA060ACF6807FA0EF747EA0A078760EA
:1007A800476827EA050AC4F300179F4047EA0A0783
:1007B8004760C768BCF1020F07EA060A8F6807FAA4
:1007C8000EF747EA0A07C76016D14FEAD30A03F0C3
:1007D800070B4FF00F0C00EB8A0A4FEA8B0BDAF885
:1007E80020700CFA0BFC27EA0C0C0F6907FA0BF7C0
:1007F80047EA0C07CAF8207007683E4004F0030770
:1008080007FA0EFE4EEA06060660E60066D5D8F838
:10081800446023F0030703F0030C4FF00F0E46F477
:10082800804607F180474FEA8C0CC8F8446007F50A
:100838009C37D8F8446006F480460396039E0EFA67
:100848000CF6D7F808A02AEA060E324EB0424CD071
:1008580006F58066B0424AD006F58066B04248D0B8
:1008680006F58066B04246D006F58066B04244D0B0
:10087800484544D006F50066B04242D006F5806689
:10088800B04240D006F58066B0423ED006F580669C
:10089800B04214BF0A26092606FA0CF614F4803F63
:1008A80046EA0E06BE606FEA050716680CBF3E40B2
:1008B8002E4314F4003F166056680CBF3E402E438A
:1008C80014F4801F566096680CBF3E402E43A40265
:1008D8009660D66854BF3E402E43D6600133102B35
:1008E8007FF441AF05B0BDE8F08F0026D4E70126BC
:1008F800D2E70226D0E70326CEE70426CCE7052672
:10090800CAE70626C8E70726C6E70826C4E700BFE1
:10091800003C014000000240003802400014024040
:100928000AB1816170470904FBE743690B4218BFAC
:100938000904816170470000194B37B51A6C194CCE
:1009480042F080521A641B6C03F080530193019BA0
:10095800236843F480332360FFF788FE0546636805
:10096800DA030CD5236843F400332360FFF77EFED7
:100978000C4C054663689B030AD5002006E0FFF788
:1009880075FE401BB0F57A7FE9D9032003B030BD6E
:10099800FFF76CFE401BB0F57A7FEBD9F5E700BF97
:1009A80000380240007000402DE9F341044608B9C0
:1009B80001203FE00368D80710D42368990760D462
:1009C8002368190700F1A58023685A0700F1C6803B
:1009D800A069002840F0308100202BE0944B9A68F1
:1009E80002F00C02042A07D09A6802F00C02082AC6
:1009F8000AD15B685A0207D58D4B1B689B03DCD56F
:100A08006368002BD9D1D3E76368894DB3F5803F7C
:100A180013D12B6843F480332B60FFF727FE844DF6
:100A280006462B689F03C8D4FFF720FE801B642866
:100A3800F7D9032002B0BDE8F0819BB92B6823F4F5
:100A480080332B602B6823F480232B60FFF70EFE86
:100A580006462B689803B0D5FFF708FE801B64286C
:100A6800F7D9E6E7B3F5A02F2B6803D143F4802329
:100A78002B60CEE723F480332B602B6823F480238C
:100A8800CAE76B4B9A6812F00C0F07D09A6802F00D
:100A98000C02082A11D15B6859020ED4644B1A68FB
:100AA800920702D5E268012A82D11A68216922F0E8
:100AB800F80242EAC1021A6082E7E3685C4DBBB102
:100AC8002B6843F001032B60FFF7D0FD06462B6827
:100AD8009F0707D52B68226923F0F80343EAC2036E
:100AE8002B606DE7FFF7C2FD801B0228EFD9A0E756
:100AF8002B6823F001032B60FFF7B8FD06462B682F
:100B080098077FF55DAFFFF7B1FD801B0228F6D986
:100B18008FE76369464D83B16B6F43F001036B67E1
:100B2800FFF7A4FD06466B6F9B073FF54DAFFFF738
:100B38009DFD801B0228F6D97BE76B6F23F001032C
:100B48006B67FFF793FD06466B6F9F077FF53CAF1A
:100B5800FFF78CFD801B0228F6D96AE7344B1A6C24
:100B6800D00027D41A6C012642F080521A641B6CFC
:100B780003F080530193019B2E4D2B68D9051BD59B
:100B8800A3682B4D012B27D12B6F43F001032B6753
:100B980041F28835FFF76AFD254F80463B6F9B077A
:100BA8003FD5002E3FF414AF214A136C23F0805335
:100BB80013640DE70026DFE72B6843F480732B608E
:100BC800FFF754FD07462B68DA05D9D4FFF74EFD29
:100BD800C01B6428F7D92CE7ABB92B6F41F28838D2
:100BE80023F001032B672B6F23F004032B67FFF718
:100BF8003DFD07462B6F9807D3D5FFF737FDC01B80
:100C08004045F7D915E7052B2B6F03D143F00403B3
:100C18002B67B9E723F001032B672B6F23F004033D
:100C2800B5E7FFF723FDA0EB0800A842B6D900E717
:100C38000038024000700040384DAB6803F00C03E8
:100C4800082B41D02B68022823F080732B602ED10B
:100C5800FFF70CFD06462B68990122D4D4E9073228
:100C68001343626A43F0005343EA8213E26A43EA99
:100C78000263A26A294C5208013A43EA02436B60B4
:100C88002B6843F080732B60FFF7F0FC0546236860
:100C98009A013FF5A1AEFFF7E9FC401B0228F6D9FF
:100CA800C7E6FFF7E3FC801B0228D4D9C1E6FFF7AB
:100CB800DDFC04462B689B017FF58EAEFFF7D6FC62
:100CC800001B0228F6D9B4E601286B683FF4B2AEDF
:100CD80003F48002E1698A427FF46AAE03F03F02BE
:100CE800216A8A427FF464AE47F6C072616A1A408C
:100CF800B2EB811F7FF45CAEA26A03F44031520864
:100D0800013AB1EB024F7FF453AEE26A03F070632D
:100D1800B3EB026F14BF012000208BE600380240BD
:100D2800134908B58B6803F00C03042B03D0082B78
:100D380003D0104800E0104808BD4A684B6849686D
:100D480002F03F0213F48003C1F388111ABF0A4866
:100D580000230848A1FB0001FFF752FA044B5B6827
:100D6800C3F3014301335B00B0FBF3F0E4E700BFDA
:100D7800003802400024F40000127A002DE9F04106
:100D88000D46044610B90120BDE8F081454A1368B4
:100D980003F00F038B4228D321688F0730D4C8078C
:100DA80043D4404A136803F00F03AB4266D8226865
:100DB80051076FD4130707D53B4A2169936823F479
:100DC800604343EAC1039360FFF7AAFF364B374AF3
:100DD8009B68C3F30313D35CD840354B1860354B7D
:100DE8001868FFF7FFFB0020CEE7136823F00F0316
:100DF8000B431360136803F00F038B42C3D1CBE797
:100E080011F0040F284B03D09A6842F4E0529A601C
:100E18000E0703D59A6842F460429A609A68A068FF
:100E280022F0F00202439A60B9E761681E4B01297B
:100E38001A681BD112F4003FA5D09A6841F288388D
:100E4800194E22F003020A439A60FFF70FFC074687
:100E5800B368626803F00C03B3EB820FA1D0FFF70D
:100E680005FCC01B4045F3D903208DE7022902D1B8
:100E780012F0007FE0E712F0020FDDE7136823F0BD
:100E88000F032B431360136803F00F03AB427FF487
:100E98007AAF8CE70449E0688B6823F4E053034396
:100EA8008B6087E7003C024000380240D6100808F3
:100EB8001000002018000020DFF834D0002103E0E3
:100EC8000C4B5B58435004310B480C4B42189A4268
:100ED800F6D30B4A02E0002342F8043B094B9A423E
:100EE800F9D3FFF757FB00F0BDF800F00FF8704793
:100EF8000000052000110808000000201C00002048
:100F08001C00002050000020FEE7000080B592B0D1
:100F1800BFF34F8FBFF36F8F494B0021C3F85012B7
:100F2800BFF34F8FBFF36F8F5A6942F400325A6193
:100F3800BFF34F8FBFF36F8FC3F88410BFF34F8F8A
:100F4800D3F8802043F6E075C2F3C900C2F34E32ED
:100F58008407520102EA050C214606464CEA0107BD
:100F6800013E01F14041C3F86072771CF6D1203A86
:100F780012F1200FEED1BFF34F8F5A6942F480323D
:100F88005A61BFF34F8FBFF36F8FFFF74DFB0125FA
:100F98004FF4A02302270821072406A810971194CC
:100FA800CDE906534FF48003CDE90C734FF4D873A1
:100FB800CDE90E13FFF7F8FC00B1FEE7FFF7BCFC24
:100FC80000B1FEE70F234FF4A0520390214601A879
:100FD800CDE901374FF48053CDE90423FFF7CEFE66
:100FE800044600B1FEE7174B17491A6B174842F041
:100FF80002021A631B6B0D6003F002030693069B43
:101008000323C1E90155CB60FFF7A2FB2046FFF798
:1010180077FA2846FFF774FA3846FFF771FA304630
:1010280022462146FFF74CFB2046FFF799FA00209D
:10103800FFF7A4FA4FF4FA70FFF71EFBF7E700BFBB
:1010480000ED00E0003802403800002000040240B3
:101058007047FEE7FEE7FEE7FEE770477047704718
:10106800FFF7F8BA70B50D4E0D4CA41BA41000255F
:10107800A54209D10B4E0C4C00F018F8A41BA41083
:101088000025A54205D170BD56F825309847013591
:10109800EEE756F8253098470135F2E7F8100808CA
:1010A800F8100808F8100808FC100808F8B500BF80
:1010B800F8BC08BC9E467047F8B500BFF8BC08BC31
:0410C8009E46704789
:1010CC00010080000040280000200000000000000B
:1010DC0000000102030406070809000000000102D9
:0410EC0003040000F9
:0810F00048F1FF7F0100000040
:0410F800ED010808F6
:0410FC00C901080816
:1011000000040240000402400004024000080240C3
:0C1110000024F4000100000010000000AA
:0400000508080EC118
:00000001FF
